{
  "contractName": "PonziScheme",
  "abi": [
    {
      "inputs": [],
      "stateMutability": "nonpayable",
      "type": "constructor"
    },
    {
      "anonymous": false,
      "inputs": [
        {
          "indexed": true,
          "internalType": "address",
          "name": "_from",
          "type": "address"
        },
        {
          "indexed": false,
          "internalType": "uint256",
          "name": "_value",
          "type": "uint256"
        }
      ],
      "name": "Deposit",
      "type": "event"
    },
    {
      "inputs": [],
      "name": "MIN_INVESTMENT",
      "outputs": [
        {
          "internalType": "uint256",
          "name": "",
          "type": "uint256"
        }
      ],
      "stateMutability": "view",
      "type": "function",
      "constant": true
    },
    {
      "inputs": [
        {
          "internalType": "address",
          "name": "",
          "type": "address"
        }
      ],
      "name": "balances",
      "outputs": [
        {
          "internalType": "uint256",
          "name": "",
          "type": "uint256"
        }
      ],
      "stateMutability": "view",
      "type": "function",
      "constant": true
    },
    {
      "inputs": [
        {
          "internalType": "uint256",
          "name": "",
          "type": "uint256"
        }
      ],
      "name": "investors",
      "outputs": [
        {
          "internalType": "address",
          "name": "",
          "type": "address"
        }
      ],
      "stateMutability": "view",
      "type": "function",
      "constant": true
    },
    {
      "stateMutability": "payable",
      "type": "receive",
      "payable": true
    },
    {
      "inputs": [],
      "name": "deposit",
      "outputs": [],
      "stateMutability": "payable",
      "type": "function",
      "payable": true
    },
    {
      "inputs": [],
      "name": "withdraw",
      "outputs": [],
      "stateMutability": "payable",
      "type": "function",
      "payable": true
    },
    {
      "inputs": [],
      "name": "balanceOf",
      "outputs": [
        {
          "internalType": "uint256",
          "name": "",
          "type": "uint256"
        }
      ],
      "stateMutability": "view",
      "type": "function",
      "constant": true
    }
  ],
  "bytecode": "0x608060405234801561001057600080fd5b506001339080600181540180825580915050600190039060005260206000200160009091909190916101000a81548173ffffffffffffffffffffffffffffffffffffffff021916908373ffffffffffffffffffffffffffffffffffffffff1602179055506104de806100836000396000f3fe6080604052600436106100595760003560e01c806327e235e3146100655780633ccfd60b146100ca5780633feb5f2b146100d45780634ef8ff3314610139578063722713f714610164578063d0e30db01461018f57610060565b3661006057005b600080fd5b34801561007157600080fd5b506100b46004803603602081101561008857600080fd5b81019080803573ffffffffffffffffffffffffffffffffffffffff169060200190929190505050610199565b6040518082815260200191505060405180910390f35b6100d26101b1565b005b3480156100e057600080fd5b5061010d600480360360208110156100f757600080fd5b8101908080359060200190929190505050610282565b604051808273ffffffffffffffffffffffffffffffffffffffff16815260200191505060405180910390f35b34801561014557600080fd5b5061014e6102be565b6040518082815260200191505060405180910390f35b34801561017057600080fd5b506101796102ca565b6040518082815260200191505060405180910390f35b610197610310565b005b60006020528060005260406000206000915090505481565b60008060003373ffffffffffffffffffffffffffffffffffffffff1673ffffffffffffffffffffffffffffffffffffffff16815260200190815260200160002054905060008060003373ffffffffffffffffffffffffffffffffffffffff1673ffffffffffffffffffffffffffffffffffffffff168152602001908152602001600020819055503373ffffffffffffffffffffffffffffffffffffffff166108fc829081150290604051600060405180830381858888f1935050505015801561027e573d6000803e3d6000fd5b5050565b6001818154811061028f57fe5b906000526020600020016000915054906101000a900473ffffffffffffffffffffffffffffffffffffffff1681565b670de0b6b3a764000081565b60008060003373ffffffffffffffffffffffffffffffffffffffff1673ffffffffffffffffffffffffffffffffffffffff16815260200190815260200160002054905090565b670de0b6b3a764000034101561038e576040517f08c379a00000000000000000000000000000000000000000000000000000000081526004018080602001828103825260168152602001807f4e6f74206d696e696d756d20696e766573746d656e740000000000000000000081525060200191505060405180910390fd5b6000600180549050348161039e57fe5b04905060005b6001805490508110156104415781600080600184815481106103c257fe5b9060005260206000200160009054906101000a900473ffffffffffffffffffffffffffffffffffffffff1673ffffffffffffffffffffffffffffffffffffffff1673ffffffffffffffffffffffffffffffffffffffff1681526020019081526020016000206000828254019250508190555080806001019150506103a4565b506001339080600181540180825580915050600190039060005260206000200160009091909190916101000a81548173ffffffffffffffffffffffffffffffffffffffff021916908373ffffffffffffffffffffffffffffffffffffffff1602179055505056fea2646970667358221220aac2aeff8af599b2cb9b3d2119c8f38543ba13021590ed57a3ab5d606374bdbe64736f6c634300060c0033",
  "immutableReferences": {},
  "source": "pragma solidity  >= 0.6.0;\r\n\r\n\r\ncontract PonziScheme {\r\n    // Contract for Solidity Ponzi Scheme\r\n    uint public constant MIN_INVESTMENT = 1e18;\r\n    mapping(address => uint) public balances;\r\n    address[] public investors;\r\n\r\n    event Deposit(\r\n        address indexed _from,\r\n        uint256 _value\r\n    );\r\n    \r\n    constructor() public {\r\n        investors.push(msg.sender);\r\n    }\r\n    \r\n    \r\n    receive() external payable {\r\n\r\n\r\n    }\r\n\r\n    function deposit() payable public\r\n    {\r\n        require(msg.value >= MIN_INVESTMENT, \"Not minimum investment\");\r\n\r\n        // Distribute the rewards between all investors\r\n            uint rewardForInvestor  = msg.value / investors.length;\r\n            for(uint i=0;i<investors.length;i++){\r\n                balances[investors[i]] += rewardForInvestor;\r\n            }\r\n            investors.push(msg.sender);\r\n\r\n    }\r\n\r\n    function withdraw() public payable{\r\n        \r\n        uint payout = balances[msg.sender];\r\n        balances[msg.sender] = 0;\r\n        msg.sender.transfer(payout);\r\n\r\n    }\r\n\r\n    function balanceOf() public view returns(uint){\r\n        return balances[msg.sender];\r\n    }\r\n\r\n\r\n    \r\n\r\n\r\n}",
  "sourcePath": "C:/Users/74014312/Platzi-clases/Solidity/src/contracts/PonziScheme.sol",
  "compiler": {
    "name": "solc",
    "version": "0.6.12+commit.27d51765.Emscripten.clang"
  },
  "schemaVersion": "3.2.3",
  "updatedAt": "2021-03-15T18:29:48.089Z",
  "networkType": "ethereum",
  "devdoc": {
    "kind": "dev",
    "methods": {},
    "version": 1
  },
  "userdoc": {
    "kind": "user",
    "methods": {},
    "version": 1
  }
}