{
  "contractName": "PonziScheme",
  "abi": [
    {
      "inputs": [],
      "stateMutability": "nonpayable",
      "type": "constructor"
    },
    {
      "anonymous": false,
      "inputs": [
        {
          "indexed": true,
          "internalType": "address",
          "name": "_from",
          "type": "address"
        },
        {
          "indexed": false,
          "internalType": "uint256",
          "name": "_value",
          "type": "uint256"
        }
      ],
      "name": "Deposit",
      "type": "event"
    },
    {
      "inputs": [],
      "name": "MIN_INVESTMENT",
      "outputs": [
        {
          "internalType": "uint256",
          "name": "",
          "type": "uint256"
        }
      ],
      "stateMutability": "view",
      "type": "function",
      "constant": true
    },
    {
      "inputs": [
        {
          "internalType": "address",
          "name": "",
          "type": "address"
        }
      ],
      "name": "balances",
      "outputs": [
        {
          "internalType": "uint256",
          "name": "",
          "type": "uint256"
        }
      ],
      "stateMutability": "view",
      "type": "function",
      "constant": true
    },
    {
      "inputs": [
        {
          "internalType": "uint256",
          "name": "",
          "type": "uint256"
        }
      ],
      "name": "investors",
      "outputs": [
        {
          "internalType": "address",
          "name": "",
          "type": "address"
        }
      ],
      "stateMutability": "view",
      "type": "function",
      "constant": true
    },
    {
      "stateMutability": "payable",
      "type": "receive",
      "payable": true
    },
    {
      "inputs": [],
      "name": "deposit",
      "outputs": [],
      "stateMutability": "payable",
      "type": "function",
      "payable": true
    },
    {
      "inputs": [],
      "name": "withdraw",
      "outputs": [],
      "stateMutability": "payable",
      "type": "function",
      "payable": true
    },
    {
      "inputs": [],
      "name": "balanceOf",
      "outputs": [
        {
          "internalType": "uint256",
          "name": "",
          "type": "uint256"
        }
      ],
      "stateMutability": "view",
      "type": "function",
      "constant": true
    },
    {
      "inputs": [],
      "name": "showInvestors",
      "outputs": [
        {
          "internalType": "address[]",
          "name": "",
          "type": "address[]"
        }
      ],
      "stateMutability": "view",
      "type": "function",
      "constant": true
    }
  ],
  "bytecode": "0x608060405234801561001057600080fd5b506001339080600181540180825580915050600190039060005260206000200160009091909190916101000a81548173ffffffffffffffffffffffffffffffffffffffff021916908373ffffffffffffffffffffffffffffffffffffffff160217905550610641806100836000396000f3fe6080604052600436106100745760003560e01c80634ef8ff331161004e5780634ef8ff331461015457806364d584391461017f578063722713f7146101eb578063d0e30db0146102165761007b565b806327e235e3146100805780633ccfd60b146100e55780633feb5f2b146100ef5761007b565b3661007b57005b600080fd5b34801561008c57600080fd5b506100cf600480360360208110156100a357600080fd5b81019080803573ffffffffffffffffffffffffffffffffffffffff169060200190929190505050610220565b6040518082815260200191505060405180910390f35b6100ed610238565b005b3480156100fb57600080fd5b506101286004803603602081101561011257600080fd5b8101908080359060200190929190505050610309565b604051808273ffffffffffffffffffffffffffffffffffffffff16815260200191505060405180910390f35b34801561016057600080fd5b50610169610345565b6040518082815260200191505060405180910390f35b34801561018b57600080fd5b50610194610351565b6040518080602001828103825283818151815260200191508051906020019060200280838360005b838110156101d75780820151818401526020810190506101bc565b505050509050019250505060405180910390f35b3480156101f757600080fd5b506102006103df565b6040518082815260200191505060405180910390f35b61021e610425565b005b60006020528060005260406000206000915090505481565b60008060003373ffffffffffffffffffffffffffffffffffffffff1673ffffffffffffffffffffffffffffffffffffffff16815260200190815260200160002054905060008060003373ffffffffffffffffffffffffffffffffffffffff1673ffffffffffffffffffffffffffffffffffffffff168152602001908152602001600020819055503373ffffffffffffffffffffffffffffffffffffffff166108fc829081150290604051600060405180830381858888f19350505050158015610305573d6000803e3d6000fd5b5050565b6001818154811061031657fe5b906000526020600020016000915054906101000a900473ffffffffffffffffffffffffffffffffffffffff1681565b670de0b6b3a764000081565b606060018054806020026020016040519081016040528092919081815260200182805480156103d557602002820191906000526020600020905b8160009054906101000a900473ffffffffffffffffffffffffffffffffffffffff1673ffffffffffffffffffffffffffffffffffffffff168152602001906001019080831161038b575b5050505050905090565b60008060003373ffffffffffffffffffffffffffffffffffffffff1673ffffffffffffffffffffffffffffffffffffffff16815260200190815260200160002054905090565b670de0b6b3a76400003410156104a3576040517f08c379a00000000000000000000000000000000000000000000000000000000081526004018080602001828103825260168152602001807f4e6f74206d696e696d756d20696e766573746d656e740000000000000000000081525060200191505060405180910390fd5b600060018054905034816104b357fe5b04905060005b6001805490508110156105565781600080600184815481106104d757fe5b9060005260206000200160009054906101000a900473ffffffffffffffffffffffffffffffffffffffff1673ffffffffffffffffffffffffffffffffffffffff1673ffffffffffffffffffffffffffffffffffffffff1681526020019081526020016000206000828254019250508190555080806001019150506104b9565b506001339080600181540180825580915050600190039060005260206000200160009091909190916101000a81548173ffffffffffffffffffffffffffffffffffffffff021916908373ffffffffffffffffffffffffffffffffffffffff1602179055503373ffffffffffffffffffffffffffffffffffffffff167fe1fffcc4923d04b559f4d29a8bfc6cda04eb5b0d3c460751c2402c5c5cc9109c346040518082815260200191505060405180910390a25056fea2646970667358221220fb8cff9ac58b6aa3c221c2d1ab2e3785bf2dcf30cb35eff43c58fb0b870a036064736f6c634300060c0033",
  "immutableReferences": {},
  "source": "pragma solidity  >= 0.6.0;\r\n\r\n\r\ncontract PonziScheme {\r\n    // Contract for Solidity Ponzi Scheme\r\n    uint public constant MIN_INVESTMENT = 1e18;\r\n    mapping(address => uint) public balances;\r\n    address[] public investors;\r\n\r\n    event Deposit(\r\n        address indexed _from,\r\n        uint256 _value\r\n    );\r\n    \r\n    constructor() public {\r\n        investors.push(msg.sender);\r\n    }\r\n    \r\n    \r\n    receive() external payable {\r\n\r\n\r\n    }\r\n\r\n    function deposit() payable public\r\n    {\r\n        require(msg.value >= MIN_INVESTMENT, \"Not minimum investment\");\r\n\r\n        // Distribute the rewards between all investors\r\n            uint rewardForInvestor  = msg.value / investors.length;\r\n            for(uint i=0;i<investors.length;i++){\r\n                balances[investors[i]] += rewardForInvestor;\r\n            }\r\n            investors.push(msg.sender);\r\n        emit Deposit(msg.sender,msg.value);\r\n    }\r\n\r\n    function withdraw() public payable{\r\n        \r\n        uint payout = balances[msg.sender];\r\n        balances[msg.sender] = 0;\r\n        msg.sender.transfer(payout);\r\n\r\n    }\r\n\r\n    function balanceOf() public view returns(uint){\r\n        return balances[msg.sender];\r\n    }\r\n\r\n\r\n    function showInvestors() public view returns(address[] memory){\r\n        return investors;\r\n    }\r\n\r\n\r\n}",
  "sourcePath": "C:/Users/74014312/Platzi-clases/Solidity/src/contracts/PonziScheme.sol",
  "compiler": {
    "name": "solc",
    "version": "0.6.12+commit.27d51765.Emscripten.clang"
  },
  "schemaVersion": "3.2.3",
  "updatedAt": "2021-03-16T19:10:22.875Z",
  "networkType": "ethereum",
  "devdoc": {
    "kind": "dev",
    "methods": {},
    "version": 1
  },
  "userdoc": {
    "kind": "user",
    "methods": {},
    "version": 1
  }
}